S00D00004C41425F312E73726563B8
S11300000C942A000C9434000C9434000C943400A6
S11300100C9434000C9434000C9434000C9434008C
S11300200C9434000C9434000C9434000C9434007C
S11300300C9434000C9434000C9434000C9434006C
S11300400C9434000C9434000C9434000C9434005C
S11300500C94340011241FBECFE5D8E0DEBFCDBF21
S11300600E9444000C9493000C940000939A089509
S1130070939808958B9A0895DB9A0895DB980895D0
S1130080D39A0895B89808950E9442000E943A00B5
S11300900E944000C0E0B09BFECF2FEF80E792E0CB
S11300A0215080409040E1F700C00000CF5FC33092
S11300B028F40E9438000E943E00EDCFC33071F452
S11300C00E943E000E9436002FEF83ED90E3215002
S11300D080409040E1F700C00000DDCFC43071F4EF
S11300E00E943C000E9436002FEF83ED90E32150E4
S11300F080409040E1F700C00000CDCFC63070F0E2
S11301000E9438000E943C002FEF83ED90E32150C1
S113011080409040E1F700C00000BDCF0E9438004D
S10D01200E943E00B8CFF894FFCF10
S9030000FC
