:100000000C942A000C9434000C9434000C943400AA
:100010000C9434000C9434000C9434000C94340090
:100020000C9434000C9434000C9434000C94340080
:100030000C9434000C9434000C9434000C94340070
:100040000C9434000C9434000C9434000C94340060
:100050000C94340011241FBECFE5D8E0DEBFCDBF25
:100060000E9465000C943D010C940000B898C09A61
:1000700080B78B7F80BF0895D89A0895D99A089544
:10008000DA9A0895DB9A0895DC9A0895DD9A089526
:10009000DE9A0895DF9A0895D8980895D99808951A
:1000A000DA980895DB980895DC980895DD9808950E
:1000B000DE980895DF980895D09AD19AD29AD39A6B
:1000C000D49AD59AD69AD79A08950E9436000E945B
:1000D0005C00B099FECF2FEF80E792E02150804086
:1000E0009040E1F700C000000E943C000E944E00DA
:1000F0000E9450000E9452000E9454000E9456002C
:100100000E9458000E945A002FEF83ED90E3215087
:1001100080409040E1F700C000000E944C000E9427
:100120003E000E9450000E9452000E9454000E9413
:1001300056000E9458000E945A002FEF83ED90E372
:10014000215080409040E1F700C000000E944C0028
:100150000E944E000E9440000E9452000E945400E3
:100160000E9456000E9458000E945A002FEF83ED13
:1001700090E3215080409040E1F700C000000E94D1
:100180004C000E944E000E9450000E9442000E94BB
:1001900054000E9456000E9458000E945A002FEFFF
:1001A00083ED90E3215080409040E1F700C00000D3
:1001B0000E944C000E944E000E9450000E9452007B
:1001C0000E9444000E9456000E9458000E945A005B
:1001D0002FEF83ED90E3215080409040E1F700C085
:1001E00000000E944C000E944E000E9450000E949D
:1001F00052000E9454000E9446000E9458000E9433
:100200005A002FEF83ED90E3215080409040E1F7BA
:1002100000C000000E944C000E944E000E9450004E
:100220000E9452000E9454000E9456000E94480002
:100230000E945A002FEF83ED90E3215080409040C0
:10024000E1F700C000000E944C000E944E000E9496
:1002500050000E9452000E9454000E9456000E94CA
:1002600058000E944A002FEF83ED90E32150804018
:0E0270009040E1F700C000002CCFF894FFCFC3
:00000001FF
